:100000000C9434000C9451000C9451000C94510049
:100010000C9451000C9451000C9451000C9451001C
:100020000C9451000C9451000C94A1120C94D31216
:100030000C9451000C9451000C9451000C945100FC
:100040000C941F150C9451000C9451000C94510009
:100050000C9451000C9451000C9451000C945100DC
:100060000C9451000C94510011241FBECFEFD8E026
:10007000DEBFCDBF11E0A0E0B1E0EAE1FCE202C0EA
:1000800005900D92A633B107D9F714E0A6E3B1E0CD
:1000900001C01D92AC3FB107E1F70E9453000C94E0
:1000A0000B160C94000080E88093610010926100B0
:1000B00080EC9DE50197F1F70E94B90F80E062E0C6
:1000C0000E942B1081E062E00E942B100E94A81574
:1000D0000E94800278940E94E40F0E94F9010E941D
:1000E0003115F9CF1F93982F80910901882389F545
:1000F000691B962F80913D01982B90933D0181E0E3
:100100008093090180914903E82FF0E0E55BFD4F02
:1001100090838F5F809349038E3F10F010924903C4
:100120008BE492E00E946B1190933C0180933B0121
:10013000892BC9F010E080913B0190913C010E9415
:10014000C714833019F01F5F1431A9F781E01F91A4
:100150000895691B6295607F60933D0110920901CB
:1001600080E01F91089580E0F2CFEF92FF920F930D
:100170001F93DF93CF93CDB7DEB760970FB6F89498
:10018000DEBF0FBECDBF8091E70387FD04C0809125
:10019000E70385FFB3C08FEF8093480282E889832D
:1001A0008DE78A8310E07E010894E11CF11CC701F1
:1001B0000E94C714833019F01F5F1431C1F780E02B
:1001C00060E00E942B1081E060E00E942B1080E034
:1001D00062E00E942B1081E062E00E942B1080916F
:1001E000E70386FDC0C08091E70381FF42C0809194
:1001F000DF039091E003892BE1F110E020E030E093
:1002000001E017C08A3308F095C0803308F09AC027
:10021000803229F080913701813009F4DDC01F5F01
:10022000212F30E08091DF039091E00328173907F8
:1002300000F5E091E803F091E903E20FF31F8081FC
:10024000843409F484C08534E8F2863409F475C036
:10025000863408F465C08E3409F466C08335D1F65F
:1002600000933601809137018130C9F61092370131
:10027000D6CF8091E70380FF08C08091390182309A
:1002800009F49EC0813009F493C08091E70383FD97
:1002900004C08091E70382FF3AC08091390188232E
:1002A000D9F480913801882309F469C082E08093F1
:1002B000390180E061E00E942B1080E191E0909391
:1002C000E2038093E1038AE090E09093E604809358
:1002D000E5048091390102C0823059F3813009F47C
:1002E00055C060960FB6F894DEBF0FBECDBFCF915C
:1002F000DF911F910F91FF90EF9008958091E70398
:1003000084FD49CF8091E70384FF69CF44CF80917A
:10031000E70381FDC2CF8091E70380FDBECFE1CF2F
:1003200080913701813049F0809136018F5F809351
:10033000360175CF813408F46DCF608187E30E9468
:1003400072006DCF608180E30E94720068CF80915F
:100350003701813091F380913601833009F446C032
:10036000109236015CCF81E08093480280E060E02B
:100370000E942B1081E060E00E942B1034CF80910E
:100380003A01813009F0ADCF8093390181E061E01D
:100390000E942B1085E593E09093E2038093E103A4
:1003A00080919B0390E09093E6048093E50499CFBD
:1003B00010923A0160E00E942B101092390165CF33
:1003C0008091380181508093380180E060E00E9484
:1003D0002B101092390159CF10923701109236012B
:1003E000809138018F5F8093380119CF00933701D6
:1003F000B7CF1F93CF93DF93809148028F3F09F4CB
:100400006AC080913A01882321F0DF91CF911F913A
:1004100008950E941115EC010097B9F30E9456113E
:10042000182F82E064E00E942B10A5E5B3E0E0E025
:10043000F1E088E001900D928150E1F7112309F479
:1004400057C04C2FCE01EC0198E020E2A92FB0E07C
:10045000AB5ABC4FE881E295EF70F0E0E55EFE4FED
:1004600080818C939F5FA92FB0E0AB5ABC4FE9917C
:10047000F0E0EF70F070E55EFE4F80818C939F5F3F
:10048000E92FF0E0EB5AFC4F20839F5FBE01641B15
:100490006117E0F2812F880F810F895FC82FD0E0AC
:1004A0008F5FA82FB0E0982F9F5FE92FF0E0CB5A25
:1004B000DC4F8DE08883AB5ABC4F8AE08C93EB5ABB
:1004C000FC4F108290939B0381E080933A01DF916F
:1004D000CF911F9108950E941115892B09F495CF92
:1004E00082E064E00E942B10DF91CF911F9108956C
:1004F000C7E0D0E0A8E0B0E099E0E9E0F0E0D7CFD5
:100500008EE391E00E9418158FEF809348021092BD
:10051000490210924A021092380110923A01109248
:100520009B031092390108952A98962F9F71982B5A
:100530009EBD0DB407FEFDCF1EBC0DB407FEFDCF62
:1005400067FD03C08EB52A9A08951EBC0DB407FE40
:10055000FDCF8EB52A9A08952A986F71682B6EBDCB
:100560000DB407FEFDCF4EBD0DB407FEFDCF2A9A98
:1005700008959C01FB012A988AE38EBD0DB407FE05
:10058000FDCF2115310559F01EBC0DB407FEFDCF7E
:100590008EB580832150304011F03196F5CF2A9AE4
:1005A00008959C01FB012A988AE78EBD0DB407FED1
:1005B000FDCF2115310549F080818EBD0DB407FEB8
:1005C000FDCF319621503040B9F72A9A08951F93F4
:1005D000CF93DF93182FC82FD0E0C076D0708091D2
:1005E000DE0390E0C817D907B9F080EA6FE143E075
:1005F0000E94AC02D595C795D595C795D595C79559
:10060000D595C795D595C79580E86FE14C2F0E9489
:10061000AC0210761093DE03DF91CF911F91089505
:100620001F93182F0E94E70280E0612F0E9494021E
:100630001F9108950F931F93182F062F0E94E70212
:1006400080E4612F402F0E94AC021F910F9108950A
:10065000CF92DF92EF92FF920F931F938C016C0168
:100660000894C11CD11C84EEF80160810E941A0319
:1006700076010894E11CF11C85EEF80161810E946D
:100680001A0387010F5F1F4F82EEF60161810E94FE
:100690001A0383EEF70161810E941A0380EEF801CC
:1006A00061810E941A0381EE0F5F1F4FF801618183
:1006B0000E941A031F910F91FF90EF90DF90CF904F
:1006C00008950F931F93682F84ED0E941A0382ED03
:1006D00061E00E941A038AEE0E94100380FDFBCFA6
:1006E00082ED60E00E941A0388ED0E941003082F3B
:1006F00010E089ED0E941003282F30E0202B312BD1
:10070000C9011F910F9108950F931F93982F162FD2
:10071000072F84ED692F0E941A0386ED612F0E9436
:100720001A0387ED602F0E941A038AEE0E941003BD
:1007300080FDFBCF1F910F910895229A2A9A2D9A3E
:10074000259A2498239A249A8CB580618CBD8DB506
:1007500081608DBD8CB580648CBD8FEF60E04FEF04
:100760000E94AC0280E29EE40197F1F71092DD0353
:100770001092DC0388E060E00E941A0389E060E0E8
:100780000E941A038CE060E00E941A038DE060E092
:100790000E941A038AE06FEF0E941A038BE069E15E
:1007A0000E941A0384E060E00E941A0385E06AE177
:1007B0000E941A0380EC6DE00E941A0381EC60E055
:1007C0000E941A0380E862EC42E30E94AC0286ECCD
:1007D00062E10E941A0387EC6CE00E941A0384EC29
:1007E00062E10E941A038AEC6CE20E941A038BEC0D
:1007F00061E00E941A0384EE60E00E941A0385EE15
:100800006DE40E941A0382EE66E50E941A0383EEED
:1008100061E30E941A0380EE60E30E941A0381EEF6
:1008200061E30E941A0388EC6AE00E941A0388E3DD
:1008300061E80E941A0380E160E071E00E94840395
:100840008FE10E94E70280E86BE140EC0E94AC027D
:1008500080E86FE144E00E94AC0284E162E477E06A
:100860000E948403089508950F931F93CF93DF93FD
:100870008C01EB0101C000008DE10E94100382FD9C
:10088000FACF80E86FE140E80E94AC0280EA6FE1B5
:1008900040E80E94AC0282E060E00E941A0383E01C
:1008A0006AE10E941A0386E06C2F0E941A039E01DF
:1008B0002050364E87E0632F0E941A038AE760E0DB
:1008C00040E00E94AC02CE01B8010E94D10280E853
:1008D0006FE148E00E94AC0201C000008CE10E9480
:1008E000100383FFFACFDF91CF911F910F910895ED
:1008F0000895CF92DF92EF92FF920F931F93CF93C1
:10090000DF938C017B01EA01690180E86FE140E837
:100910000E94AC0280EA6FE140E80E94AC0282E0F3
:1009200060E00E941A0383E06AE10E941A03CE018C
:10093000800F682F86E00E941A0398012050364EDF
:100940002C0F3D1F87E0632F0E941A038AE760E0A7
:1009500040E00E94AC02C801B7010E94D10220977A
:10096000A9F480E86FE148E00E94AC0201C00000F9
:100970008CE10E94100383FFFACFDF91CF911F918A
:100980000F91FF90EF90DF90CF900895CE01B601C8
:100990000E94D102E6CFCF93DF938CE10E94100337
:1009A00086FD06C0C0E0D0E0CE01DF91CF91089572
:1009B00080E06091DC030E941A036091DD0381E016
:1009C0000E941A038AE360E00E9494028093DC0391
:1009D0001092DD038AE360E00E949402382F20E049
:1009E0008091DC039091DD03822B932B9093DD03A8
:1009F0008093DC038AE360E00E949402C82FD0E079
:100A00008AE360E00E949402382F20E0C22BD32BAF
:100A10008AE360E00E9494028AE360E00E9494020C
:100A2000CE01DF91CF9108959C01CB01B9010E94C5
:100A3000B90208958CE06091DC030E941A03609172
:100A4000DD038DE00E941A0380E86EE140E40E941D
:100A5000AC02089508950895FC01DA01218130E087
:100A6000908180E0282B392B3093130420931404B9
:100A7000328120E0838190E0822B932B90931504A8
:100A80008093160411962C91119730E09C9180E090
:100A9000282B392B309317042093180412963C917D
:100AA000129720E013968C9190E0822B932B9093D9
:100AB000190480931A04FB01218130E0908180E0C9
:100AC000282B392B3093090420930A04328120E02B
:100AD000838190E0822B932B90930B0480930C04E2
:100AE00010920E0410920D041092100410920F0434
:100AF00010921204109211041092050481E0809368
:100B0000A20308959C0180910D0490910E04821718
:100B1000930791F080910F0490911004821793072E
:100B2000B9F0809111049091120482179307A1F0FB
:100B300083E08093A203089580E0E0E0F0E08093FA
:100B4000A203EE0FFF1FE35FFB4F11821082089597
:100B500081E0E1E0F0E0F3CF82E0E2E0F0E0EFCF2F
:100B60009C0180910D0490910E04892B81F080915D
:100B70000F0490911004892BB1F080911104909191
:100B80001204892BA1F083E08093A203089580E0F2
:100B9000E0E0F0E08093A203EE0FFF1FE35FFB4F66
:100BA00031832083089581E0E1E0F0E0F3CF82E03B
:100BB000E2E0F0E0EFCF282F892F922F0895BC01BB
:100BC0008091EA039091EB0308960E94B60BE091A6
:100BD000EA03F091EB038091E30380878091E403C3
:100BE00081878091E50382878091E603838708955A
:100BF000EF92FF920F931F93CF93DF93C091EA037D
:100C0000D091EB0321E534E03093E9032093E8032E
:100C1000823009F4ADC08901085210408091290446
:100C2000853459F01092E0031092DF03DF91CF91E9
:100C30001F910F91FF90EF90089540912B048091A8
:100C4000DF039091E003242F30E0892F99272817A4
:100C5000390769F02091DF033091E003942F80E0A1
:100C60003070822B932B9093E0038093DF0380916D
:100C70002C04282F30E08091DF039091E0039070E6
:100C80002817390759F08091DF039091E0038070B5
:100C9000822B932B9093E0038093DF0380912F04AA
:100CA00090E08F739070892B09F0BCCF8091300455
:100CB000882309F0B7CF2091390430913A0480910C
:100CC0001304909114042817390709F0ABCF209131
:100CD0003B0430913C048091150490911604281730
:100CE000390709F09FCF0E944C0C8F5F9F4F09F08E
:100CF00099CF80913204863009F4E8C1813009F03F
:100D000091CF80913D04883009F08CCF10923D0442
:100D100080913F0490914004EFEF873F9E0708F4D5
:100D200081C209969093400480933F042091390436
:100D300030913A048091350490913604F801918BFA
:100D4000808B3587248720913B0430913C0430937D
:100D5000A5032093A4038091370490913804938BCA
:100D6000828B3787268782E064E00E942B105ECF5B
:100D70008091A1038F5F8093A103882379F48091F0
:100D8000A0038F5F8093A003882341F480919F0389
:100D90008F5F80939F03882309F470C01092E00353
:100DA0001092DF03298D273009F460C0253009F443
:100DB0005DC0222309F436CF88899989892B09F4EB
:100DC00063C08A8D81508A8F8F5F09F02BCF3B8D56
:100DD000353009F40AC1822F8150823008F402C1F3
:100DE000353008F4EAC080E38A8F3F5F3B8F822F63
:100DF00090E08F7090708430910509F4EDC08530DB
:100E000091050CF0E3C08130910509F4F8C0039717
:100E100009F008CF1092E0031092DF031092E6046D
:100E20001092E50484E08093E7030E94B50080916E
:100E3000E1039091E2039093E9038093E8038091AA
:100E4000E5049091E604892B09F4EEC0888999891C
:100E5000009709F4E9C088969093E0038093DF033C
:100E600009E214E088E180934A043AC08A8D8F5FDA
:100E70008A8F883709F0D6CE198ED4CE80919E0302
:100E80008F5F80939E038ACF2F70233009F0CACEE4
:100E90001092E0031092DF031092E6041092E50432
:100EA00088E08093E7030E94B5008091E50490916B
:100EB000E604892B09F4B6CE8091E70385FFC4C010
:100EC0001092E6041092E504198E84E180934A049E
:100ED00088E290E09093E0038093DF0309E214E05E
:100EE00080E5F80180A38885F801848F8985858F46
:100EF0008A85868F8B85878F8C85808F8D85818F66
:100F00008E85828F8F85838F86E081878C819D81FE
:100F1000958B848B8E819F81978B868B8091130418
:100F200090911404958784878091150490911604FC
:100F30009787868788819981918B808B8A819B8115
:100F4000938B828B898D84FF33C013A212A2809170
:100F5000DF039091E003F80192838091DF03909189
:100F6000E003838315A214A20E94530C80959095F0
:100F7000F80195A384A385E4809329041182178244
:100F800016828FEF808780919C0390919D0301963C
:100F900090939D0380939C0394838583138612868C
:100FA0000E944C0C80959095F801938782873ECEE5
:100FB000F80112A280E183A3CACF83E090E0032E60
:100FC00002C0880F991F0A94E2F70ECF8630910570
:100FD00019F0089709F026CE09E214E081E1F80142
:100FE00081A376CF333009F0FBCE198E80E8809351
:100FF000E7030E94B50084E180934A0469CF09E2C7
:1010000014E082E1F80181A382E080A784E081A757
:1010100012A682E983A78CE290E09093E00380938C
:10102000DF0380E680A35FCF8091E70381FFFACDE5
:1010300088E290E09093E0038093DF0309E214E0FC
:1010400080E180934A044CCF8091E70384FF0FC076
:101050001092E6041092E50481E090E0998B888B71
:1010600084E0898F1B8E81E180934A0431CF809187
:10107000E5049091E604892BD9F08091E70380FF85
:101080001BC0198A188A2A893B898091E5049091AE
:10109000E6042817390720F43093E6042093E5048A
:1010A0008091E5049091E604998B888B1B8EBFCECE
:1010B000198A188A1B8EBBCE88899989009719F3E3
:1010C0009093E6048093E5041B8EB1CE0E94530CEE
:1010D0008F5F9F4F09F0A6CD3CEEE32E33E0F32E59
:1010E000E701898D882351F020913F04309140041D
:1010F0008C819D812817390709F49AC06D9624E0E8
:10110000C930D20770F380914A04482F50E0CA01D9
:101110008F739070029709F461C042FD83CD84E122
:10112000F80181A388E290E09093E0038093DF03CD
:1011300080E580A39091440480914804838F978F29
:101140004091430480914704828F468F309142043E
:1011500080914604818F358F209141042093A20312
:1011600080914504808F248F9F5F978F992361F42E
:10117000842F8F5F868F882339F4832F8F5F858F2D
:10118000882311F42F5F248F20913D0430913E0479
:1011900080913F0490914004F801958B848B378BAC
:1011A000268B2091390430913A0480913504909136
:1011B0003604918B808B3587248720913B043091B6
:1011C0003C043093A5032093A403809137049091AD
:1011D0003804938B828B37872687B9CE20913F04C2
:1011E000309140043093A5032093A40380910D0413
:1011F00090910E048217930709F466C080910F0442
:10120000909110048217930709F45EC08091110435
:10121000909112048217930709F456C083E08093DB
:10122000A2037BCF08969093400480933F047ECD29
:1012300020913D0430913E048E819F81281739070B
:1012400009F05CCF20913504309136048881998172
:101250002817390709F052CF20913704309138040C
:101260008A819B812817390709F048CFD093EB0377
:10127000C093EA031092E70380914A04482F82FD4D
:10128000D1C18091490482958F70880F880F809317
:10129000A2032091DF033091E00324513040281B4A
:1012A00031093093E0032093DF038091DF039091B5
:1012B000E003892B31F1909141048885981791F0D2
:1012C00080E1F80181A304CE1092A203809105046D
:1012D000882309F442C1873009F43CC181E080933E
:1012E000A203A0CC909142048985981749F7909168
:1012F00043048A85981721F7909144048B859817A9
:10130000F9F644FF06C0688979896115710509F00D
:1013100090C1898D482F50E0CA018F709070853040
:10132000910509F4F3C0863091050CF0DAC08330E2
:10133000910509F44CC08430910534F5019709F00A
:1013400071CC8091E70380FF6DCC83E0898F80E4CE
:101350008093E703198A188A8091DF039091E00354
:10136000892B59F08091E70382608093E703809195
:10137000DF039091E0030E94DF051092E6041092D3
:10138000E5040E94B50098CD8091DF039091E003C1
:10139000892B31F08091DF039091E0030E94DF05FB
:1013A00080914A0480FF94C08091E70380FF8DC044
:1013B00087E0898F1A8E198A188A81E090E00E944E
:1013C000DF0580E18093E7030E94B50079CF80912B
:1013D0004A0480FF24C088899989892B09F022CC8E
:1013E0008091DF039091E00301960E94DF0580E188
:1013F0008093E7038091DF039091E003892B29F02C
:101400008091E70382608093E7030E94B50081E04A
:1014100090E0998B888B88E0898F1B8EDFCD85FFCC
:101420001CC090914F0480E02091500430E0282BA4
:10143000392B8091E8039091E903820F931F9093D9
:10144000E9038093E8038091DF039091E003821B1E
:10145000930B9093E0038093DF038091DF039091DF
:10146000E003892B69F044FD0BC08091E7038260A3
:101470008093E7038091DF039091E0030E94DF05F2
:1014800090914B0480E020914C04820F911D909329
:10149000A5038093A4032C893D892817390710F0F0
:1014A000892B21F43093A5032093A4038091A403F6
:1014B0009091A5039B8B8A8B8091E70390E08370CA
:1014C0009070892B09F4AECB58CF86E0898F75CF09
:1014D0008091E70380FF2AC085E0898F198A188AE6
:1014E000A1CB8730910509F4EBCE8730910534F11B
:1014F000089709F097CB8091E70380FF93CB198E73
:1015000080E18093E7030E94B5008CCB8091DF03DC
:101510009091E003892B31F08091DF039091E003FB
:101520000E94DF0580914A0480FD10C08091DF0396
:101530009091E003892B09F0C3CE74CB8091E7032F
:1015400080FF70CB87E0898F1A8E6CCB87E0898F04
:101550001A8E33CF81E08093A203F092EB03E092E6
:10156000EA0383E08093060480930404109202044B
:1015700084E080930304109207043093F1032093D6
:10158000F00380913D0490913E049093F303809387
:10159000F20380913504909136049093ED0380938B
:1015A000EC0380913704909138049093EF0380937B
:1015B000EE0381E08093050480919E038093F803FD
:1015C00080919F038093F9038091A0038093FA0395
:1015D0008091A1038093FB0381E090E09093FD0351
:1015E0008093FC03809144048093F703809143042B
:1015F0008093F603809142048093F5038091410427
:101600008093F40381E090E00E94DF05209149047B
:10161000822F90E0807F9070813591050CF058C04A
:10162000E701EFCC198E80E28093E7030E94B500BA
:10163000F9CACE010C960E94B60B9091E3038091FB
:101640004504891708F465CE9091E403809146041F
:10165000891708F45ECE9091E503809147048917BD
:1016600008F457CE9091E60380914804891708F456
:1016700050CE8091E3038C878091E4038D87809125
:10168000E5038E878091E6038F878B8D8823D1F4C5
:101690002E89988D8A8D981B822F869586958695A2
:1016A000981B392F320F3E8B8F89282F2695269530
:1016B000821B97FD9195890F8F8B369536953695C0
:1016C000830F888F81E08093E703888D8A8F21CEF6
:1016D0001092A20322952F70422F50E045505040A7
:1016E000440F551F440F551F9091A203292F30E03E
:1016F00024173507BCF4F901E55EFB4F86A98093FA
:10170000A303882379F0813069F1823071F0E92FE9
:10171000F0E0E55EFB4F87A9882321F0890F8093D5
:10172000A203E2CFCCEED3E06CCC87A9843079F76A
:1017300030AD20E081AD90E0822B932B9093A503F8
:101740008093A4038339910510F082E990E090938F
:10175000FF038093FE039093010480930004CCEE7A
:10176000D3E04FCC9F5F9093A203BECFFC01838157
:10177000860F8093E603272F33278281820F809381
:10178000E50381818093E40380818093E30380916A
:10179000E50390E08217930748F48091E4038F5F9C
:1017A0008093E4038091E4038823F9F08091E603B9
:1017B00090E0707086179707B8F48091E5038F5F0B
:1017C0008093E5038091E503882371F48091E4031D
:1017D0008F5F8093E4038091E403882329F4809150
:1017E000E3038F5F8093E30308958091E3038F5FAA
:1017F0008093E303DBCFEF92FF920F931F93CF937E
:10180000DF937C016230710508F441C0FC019B014B
:10181000C0E0D0E080819181C80FD91FC817D907D7
:1018200008F421963296225030402230310590F74C
:10183000CB010297BC01617070708E7F0296E80E3A
:10184000F91E8E016130710541F0C801DF91CF9121
:101850001F910F91FF90EF90089580E0F701908124
:101860000E94DB058C010C0F1D1F80E0F7019081A9
:101870000E94DB050817190740F70F5F1F4FC801CB
:10188000DF91CF911F910F91FF90EF900895C0E0ED
:10189000D0E000E010E0D6CF89E294E064E170E0AF
:1018A0000E94FB0B08950F931F93CF93DF938DE35B
:1018B00094E064E170E00E94FB0B8C0160912C04C9
:1018C00070E06852704090912B0480E0680F791F9F
:1018D0008091E8039091E9030E94FB0B9C01200F8B
:1018E000311F2017310710F42F5F3F4F80913504CF
:1018F00090913604280F391F2817390710F42F5FED
:101900003F4F8091370490913804280F391F2817D2
:10191000390710F42F5F3F4F8091390490913A04BA
:10192000280F391F2817390710F42F5F3F4F809178
:101930003B0490913C04E901C80FD91FC817D9078F
:1019400008F4219686E090E00E94DB05C80FD91FBD
:1019500086E090E00E94DB05C817D90708F42196BD
:1019600080912C0490E0449730912B0420E0820F6A
:10197000931F0E94DB059C012C0F3D1F2817390780
:1019800010F42F5F3F4FC901DF91CF911F910F914D
:1019900008958091D8038F5F8093D8031092D60367
:1019A00020E040E05BE0682F70E006C04F5F242F2E
:1019B0004093D6034430F0F4259FF0011124EA55FA
:1019C000FC4F8281938120813181822B932B892B43
:1019D00069F382859B01281B31092837310534F3CF
:1019E00010821182128213824F5F242F4093D603FC
:1019F000443010F3089580E090E02BE0829FF001E6
:101A00001124EA55FC4F1082118212821382892F11
:101A10008F5F982F8093D603843080F30895409190
:101A2000390450913A04809113049091140484274E
:101A300095272091090430910A0482239323892B4E
:101A400099F460913B0470913C048091150490914D
:101A500016048627972720910B0430910C048223CB
:101A60009323892B09F4C2C0809117049091180424
:101A70009093D3038093D2038091190490911A0418
:101A80009093D5038093D4031092D6036091D20330
:101A90007091D303A091D403B091D503E6EAF3E0AB
:101AA00030E021E007C0822F8F5F3B96853089F1BF
:101AB000322F282FAF01808191816817790799F71C
:101AC00082819381A817B90771F73093D603ABE1F0
:101AD000B4E0FA01349686E001900D928150E1F76E
:101AE000A1E2B4E0EAE0F1E086E001900D928150DD
:101AF000E1F788E090E09093280480932704809198
:101B0000DF039091E0030E969093E0038093DF0350
:101B100008952093D6032430D1F68BE194E06FEF43
:101B200070E046E050E00E94FC15EBE3F4E086E054
:101B3000DF011D928A95E9F77A97AAE0B1E086E085
:101B40000D9001928150E1F7A1E3B4E0EAE0F1E009
:101B500086E001900D928150E1F78091D20390913F
:101B6000D30390934204809341048091D4039091D5
:101B7000D50390934404809343048091130490917F
:101B80001404909338048093370480911504909145
:101B9000160490933A048093390480E091E0909386
:101BA000300480932F0490932A048093290488E0C2
:101BB00090E090932C0480932B0486E080932D0476
:101BC00084E080932E0488E096E09093280480932C
:101BD000270481E594E09093E9038093E8038AE287
:101BE00090E09093E0038093DF0308955093D30334
:101BF0004093D2037093D5036093D40345CFFF92F3
:101C00000F931F93CF93DF93EC01062FF72E1092C3
:101C1000D603A6EAB3E0FD0140E050E005C04F5F07
:101C20003B96443031F1542F20813181211531050B
:101C3000B1F3628173816115710589F3888199819E
:101C40002817390761F78A819B816817790739F767
:101C50005093D603EF012496802F9F2D9C01D9012C
:101C600086E00D9009928150E1F78091D803828738
:101C70004FC01092D60320E030E001C0322FFD01AA
:101C80008D919C911197892B39F412968D919C918D
:101C90001397892B09F442C02F5F1B96243071F7EC
:101CA0001092D9031092D7031091D803A12FB0E05E
:101CB000E0EBF3E070E060E040E050819D01251B27
:101CC0003109862F90E0821793071CF4612F651B62
:101CD000742F4F5F3B96443081F77093D703609326
:101CE000D9037093D603E7ECF3E088819981AA8148
:101CF000BB81EF0189939993A993B993202F3F2D2D
:101D0000C901DC0186E00D9009928150E1F712874C
:101D1000DF91CF911F910F91FF9008953093D603DB
:101D20001091D803E2CF8091DF039091E0030E97EA
:101D30009093E0038093DF03809113049091140447
:101D4000209135043091360482279327209109048D
:101D500030910A0482239323892B91F480911504F6
:101D600090911604209137043091380482279327EC
:101D700020910B0430910C0482239323892B09F0CA
:101D8000089585E394E061E274E00E94FF0D0895F8
:101D90008091DF039091E0038A9798F01092E0031E
:101DA0001092DF036BE174E080912F049091300476
:101DB00021E08030920751F08050924009F473C0C6
:101DC00008951092E0031092DF03089520914104DA
:101DD000309142048091130490911404281739071C
:101DE00079F7209143043091440480911504909137
:101DF00016042817390721F780E092E09093300409
:101E000080932F04DB019096FB01769686E001908B
:101E10000D928150E1F7A1E3B4E0EAE0F1E086E061
:101E200001900D928150E1F7A1E2B4E0EAE0F1E027
:101E300086E001900D928150E1F7EBE1F4E0DF01E3
:101E4000909686E00D9001928150E1F780913704E1
:101E50009091380490934204809341048091390416
:101E600090913A0490934404809343048091130426
:101E70009091140490933804809337048091150452
:101E80009091160490933A048093390488E096E088
:101E900090932804809327048AE290E09093E003D3
:101EA0008093DF0308952091410430914204809192
:101EB0001304909114042817390709F081CF209159
:101EC000430430914404809115049091160428171E
:101ED000390709F075CFCB014C966A5E7F4F0E949F
:101EE000FF0D089520ED37E0E22FF32F3197F1F742
:101EF0008A95D1F70895CF93DF930E94CB04EC012C
:101F0000009781F0893C910558F48BE194E0BE0183
:101F10000E9414050E941A058C2FDF91CF9108951D
:101F20000E941A0580E0DF91CF9108958091DF0330
:101F30009091E003C79788F04091DF035091E00350
:101F4000465350402091E8033091E90386E390E046
:101F50006BE174E00E94790408956091DF03709151
:101F6000E0038BE194E00E94340408950E949D03F5
:101F70000895219A299A87B1886387B988B18F63B8
:101F800088B91092E8041092EA041092EC04E1EB94
:101F9000F0E08081856080830895813051F0813048
:101FA00020F0823059F080E0089586B180958170EC
:101FB000089586B1869580958170089586B186953D
:101FC0008695809581700895B89B15C0B89A21E0D8
:101FD00030E148E0922F9150E92FF0E0EE0FFF1F23
:101FE000E951FB4F8181823039F08430A1F02330F8
:101FF00010F42F5FEFCF089580818F5F80838B3F38
:10200000B0F310829130A1F09130B8F488B18427F8
:1020100088B92F5FDFCF80818F5F80838D3038F369
:1020200010829130A9F0913078F4439A2F5FD2CF8B
:1020300088B1832788B92F5FCDCF9230C1F688B1A0
:1020400090E2892788B90895923089F6459A0895D3
:10205000449A2F5FBFCFE82F8130A9F0813048F03C
:102060008230D9F0F0E0EE0FFF1FE951FB4F6183A2
:102070000895623089F1633050F5662391F1613043
:1020800089F74398EFCF6230F9F06330C0F46623EC
:1020900051F1613039F74498E5CF623069F063302F
:1020A00030F46623E1F06130E9F64598DBCF633028
:1020B00009F16430B9F645981092EB04D3CF633040
:1020C000A1F0643079F644981092E904CBCF6330E4
:1020D000B1F0643039F643981092E704C3CF459AC3
:1020E000C1CF439ABFCF449ABDCF88B190E1892731
:1020F00088B9B8CF88B190E2892788B9B3CF88B1C1
:1021000098E0892788B9AECFAF92BF92CF92DF9285
:10211000EF92FF920F931F93DF93CF93CDB7DEB76C
:10212000A4970FB6F894DEBF0FBECDBF7C016B0144
:102130005A0130EC398398EA9A831B8288EC8C83AD
:102140003D839E8321E02F83888739879A8744E6E1
:102150004B8788E58C878FEF8D878E878F87188ACE
:10216000898B8A8B8B8B1C8A8D8B8E8B8F8B188E99
:10217000398F9A8F1B8E2C8F3D8F9E8F2F8F28A388
:1021800039A39AA34BA32CA386B18770853009F499
:1021900052C0863078F1863009F469C089819A810D
:1021A000AB81BC81F70180839183A283B3838D854A
:1021B0009E85AF85B889F60180839183A283B3831E
:1021C000898D9A8DAB8DBC8DF50180839183A2831F
:1021D000B383A4960FB6F894DEBF0FBECDBFCF91E8
:1021E000DF911F910F91FF90EF90DF90CF90BF9004
:1021F000AF900895882391F600E010E0C8010E9496
:102200000316F701E00FF11F8083C80104960E94B6
:102210000316F601E00FF11F8083C80108960E94A3
:102220000316F501E00FF11F80830F5F1F4F04308D
:10223000110521F7CECF89859A85AB85BC85F7013D
:1022400080839183A283B3838D899E89AF89B88D62
:10225000FB0180839183A283B38389A19AA1ABA15F
:10226000BCA1F50180839183A283B383B2CF8D811A
:102270009E81AF81B885F70180839183A283B38368
:1022800089899A89AB89BC89FB0180839183A28368
:10229000B3838D8D9E8DAF8DB8A1F5018083918321
:1022A000A283B38396CF80E090E00895FC01808103
:1022B0008076803671F0808190E080769070959580
:1022C00087959595879595958795959587958E5F33
:1022D0000895818108952F923F924F925F926F925D
:1022E0007F928F929F92AF92BF92CF92DF92EF92A6
:1022F000FF920F931F93DF93CF9300D000D00F92E4
:10230000CDB7DEB75C019C0121503F4F3D832C834C
:10231000F9019081EEEF4E2E512C4A0C5B1CF2011C
:102320008081981709F400C1EA2CB982C12C71E0B0
:10233000D72ECA0CDB1C61E0862E962E8A0C9B1CC5
:1023400052E0652E51E0752E6A0C7B1C45E0242E70
:1023500041E0342E2A0C3B1C95012D5F3E4F3B8300
:102360002A830CC0F4018081F826F082EC81FD8183
:102370009081F2018081981709F4D6C0F501E90F28
:10238000F11DF080F7FC69C0F3018081882309F01A
:1023900043C0F082F6013081F3012081832F90E069
:1023A000820F911D8F3F9105BCF10EEF031BF89436
:1023B000F2014081EC81FD818081841708F07EC0AC
:1023C000842F831BF20180837894EC81FD818081CE
:1023D000481708F066C010E09501200F311FC901B1
:1023E0006E2D798150E00E94F315F60180819501F0
:1023F000280F311D8E2D9981B901402F50E00E9488
:10240000F315EC81FD818081F6019081891BEC81BF
:10241000FD818083F6011082EC81FD8190819F5FB8
:102420009083F60180819E3F18F0EC81FD8110823F
:10243000981BF3018081891709F094CFF401808102
:102440008F1509F440C0F10180818F5F8083EC819A
:10245000FD818081F601808385CFF6018081981708
:1024600021F0F10180818F5F8083EC81FD8180818B
:10247000F60180832FEFF40120838F2D90E080768A
:1024800090708036910509F44CC095958795959587
:10249000879595958795959587958E5FF3018083B0
:1024A00079CFF6018081481B9501280F311D8E2DB3
:1024B0009981B90150E00E94F315A3CF802F840FBA
:1024C000F201808381CFF60180819501280F311DB3
:1024D000EA81FB8180819181019691838083EC81E7
:1024E000FD818081F60180832115310509F43ACF01
:1024F000C9010F900F900F900F900F90CF91DF9127
:102500001F910F91FF90EF90DF90CF90BF90AF9011
:102510009F908F907F906F905F904F903F902F9003
:102520000895F301108278CF20E030E0E1CFFC0184
:102530008AE091E0DF019C011D9221503040E1F7DB
:1025400008951F920F920FB60F9211248F939F93AD
:10255000EF93FF93EFE6F0E080818F7D80838091A1
:1025600086009091870080539D4F9093F204809352
:10257000F1048091F1049091F2049093890080938A
:102580008800B19A80818260808384E08093F50422
:102590001092F604FF91EF919F918F910F900FBED3
:1025A0000F901F9018951F920F920FB60F92112443
:1025B0002F933F938F939F93AF93BF93EF93FF938B
:1025C0008091F1049091F20480529E4F9093F20416
:1025D0008093F1048091F1049091F204909389002A
:1025E000809388008091F6048F5F8093F604809139
:1025F000F5048430D9F08091F5048330B1F18091F5
:10260000F504823009F45BC08091F504813009F44F
:1026100045C0FF91EF91BF91AF919F918F913F91F5
:102620002F910F900FBE0F901F9018958091F60478
:10263000893008F45DC0B59A80916F008062809304
:102640006F00189971C0E091F304F091F404EB5F0E
:10265000FE4F80818F5F80831092F60481E080932B
:10266000F5048091F504833051F685B123B1869548
:1026700090E030E08227932780FF4EC08091F604DF
:10268000893008F065C08091F00480FD91C0299ADE
:102690008091F00486958093F004B1CF8091F60488
:1026A000882399F18091F604883308F4B2CF109210
:1026B000F50480916F008D7F80936F00AACF809189
:1026C000F604882379F18091F6048F3008F49CCFCA
:1026D00029981092F60481E08093F504E091F304C8
:1026E000F091F404E75FFE4F80818F5F80838CCF91
:1026F0008091F00486958093F004189B8ACF809196
:10270000F00480688093F00484CFB59A80916F00C4
:10271000806280936F007DCF1092F60482E08093F8
:10272000F5046DCF299A70CFE091F304F091F40491
:102730009091F004DF01A250BF4F8C91E80FF11D82
:1027400090838F5F8C938E3F08F486CF1C9284CF4A
:102750008091F604893071F18091EE048F5F80934F
:10276000EE049091EE048091EF04981728F51092F2
:10277000F604E091F704F091F8048091EE04E80F7C
:10278000F11D80818093F004299A809184009091BA
:10279000850084539E4F9093F2048093F1048091BE
:1027A000F1049091F204909389008093880027CFE0
:1027B00029986ECF299823CF81E08093ED04109261
:1027C000F6048093F5041BCF9093F4048093F304F4
:1027D0002998219A80E880BF1092F504B59AEFE617
:1027E000F0E0808180628083E1E8F0E08081887F92
:1027F0008160808308951F93CF93DF93EC01162FA0
:102800000E9456118093EF042091EF042150109202
:10281000EE048091EE04821708F094C09FEF80913F
:10282000EE04FE01E80FF11D808198278091EE04EF
:102830008F5F8093EE048091EE04821780F3FE0197
:10284000E20FF11D9083F8948091F5048130E9F056
:1028500078948091F504813059F18091F5048823B2
:1028600071F4F89480916F008F7D80936F00B59B19
:102870002AC080916F00806280936F00789492E00C
:10288000892FDF91CF911F9108958091F604612FD8
:102890001933A8F48617E0F21092F50480916F00C6
:1028A0008D7F80936F0078948091F5048130A9F634
:1028B0008091F60490E0843118F391E0E1CF68E371
:1028C000861730F2E9CF299A809184009091850093
:1028D00084539E4F9093F2048093F1048091F1040D
:1028E0009091F20490938900809388007894D0931B
:1028F000F804C093F7041092EE041092ED0488815E
:102900008093F00483E08093F5041092F604B19A6A
:1029100080916F00826080936F008091F504833016
:10292000E1F38091ED04882379F0E091F304F091D4
:10293000F404EA5FFE4F8081918101969183808348
:1029400093E09ECF9FEF7BCF8091F504823011F012
:1029500095E096CF94E094CFDF93CF93CDB7DEB7D9
:1029600060970FB6F894DEBF0FBECDBF89836A8330
:102970004B83CE010196622F0E94FB1360960FB627
:10298000F894DEBF0FBECDBFCF91DF910895FF92C7
:102990000F931F93CF93DF93EC01FF241EE201E01E
:1029A000CE01612F0E94FB138330C9F08130E9F022
:1029B0008230B0F3823011F4002391F71B3108F01C
:1029C0001150F39489E1F81651F7E091DA03F09190
:1029D000DB03E85FFE4F80818F5F808386E0DF91BD
:1029E000CF911F910F91FF90089500E0D9CFDF9311
:1029F000CF93CDB7DEB760970FB6F894DEBF0FBEAA
:102A0000CDBF89836A834B83CE0101960E94C71490
:102A100060960FB6F894DEBF0FBECDBFCF91DF91A9
:102A200008958091DA039091DB030E946B11089561
:102A30009093DB038093DA030E94E41308951F92BE
:102A40000F920FB60F9211248F9378948091F9040E
:102A50008F5F8093F9048F910F900FBE0F901F909E
:102A600018950F931F930E947B0F90E09093E003C3
:102A70008093DF038091DF039091E003892B21F5A0
:102A80008091F9048730E8F01092F9048CEE93E01D
:102A90009093EB038093EA0382E00E94F805809113
:102AA000DF039091E003892B99F58091FA049091CE
:102AB000FB0401969093FB048093FA0485569140A1
:102AC000F0F41F910F9108950091270410912804AC
:102AD00080E098E00E94DB0508171907F1F00091EB
:102AE00027041091280486E098E00E94DB0508176F
:102AF000190719F11092F9041F910F9108950E947E
:102B0000C90C1092FB041092FA041F910F910895C2
:102B10000E940F0D0E94960FC8CF0E94930E81E075
:102B20000E94F8058091DF039091E003892B11F357
:102B30000E940F0D0E94960FDDCF0E94C80E80915B
:102B4000DF039091E003892BA9F20E94960FD2CF68
:102B5000CF92DF92EF92FF920F931F93DF93CF9369
:102B6000CDB7DEB72C970FB6F894DEBF0FBECDBF42
:102B700095E0E92EF12CEC0EFD1E89E0C82ED12C3B
:102B8000CC0EDD1E8E010F5F1F4FC801B701A601DD
:102B90000E9484100E94B60FC801B701A6010E94CE
:102BA0002C050E94FB0C85E19EEA0E94B005109264
:102BB000F9041092FB041092FA0483E085BDEEE65E
:102BC000F0E08081816080832C960FB6F894DEBFA0
:102BD0000FBECDBFCF91DF911F910F91FF90EF906E
:102BE000DF90CF900895FB01DC0102C001900D92AF
:102BF00041505040D8F70895DC0101C06D93415019
:102C00005040E0F70895F999FECF92BD81BDF89A42
:0A2C1000992780B50895F894FFCFCE
:102C1A0052454345495645200001004D5631303151
:102C2A0053454E54204F4B200D0A00303132333475
:102C3A003536373839616263646566005245434503
:062C4A0049564520000080
:00000001FF
