:100000000C9434000C9451000C9451000C94510049
:100010000C9451000C9451000C9451000C9451001C
:100020000C9451000C9451000C94BA120C94EC12E4
:100030000C9451000C9451000C9451000C945100FC
:100040000C9438150C9451000C9451000C945100F0
:100050000C9451000C9451000C9451000C945100DC
:100060000C9451000C94510011241FBECFEFD8E026
:10007000DEBFCDBF11E0A0E0B1E0ECE4FCE202C0E5
:1000800005900D92A633B107D9F714E0A6E3B1E0CD
:1000900001C01D92A23FB107E1F70E9453000C94EA
:1000A00024160C94000080E8809361001092610097
:1000B00080EC9DE50197F1F70E94D20F80E062E0AD
:1000C0000E94441081E062E00E9444100E94C11529
:1000D0000E94990278940E94FD0F0E9412020E94D1
:1000E0004A15F9CF1F93982F80910901882389F52C
:1000F000691B962F80913C01982B90933C0181E0E5
:100100008093090180914903E82FF0E0E55BFD4F02
:1001100090838F5F809349038E3F10F010924903C4
:100120008BE492E00E94841190933B0180933A010A
:10013000892BC9F010E080913A0190913B010E9417
:10014000E014833019F01F5F1431A9F781E01F918B
:100150000895691B6295607F60933C0110920901CC
:1001600080E01F91089580E0F2CFEF92FF920F930D
:100170001F93DF93CF93CDB7DEB760970FB6F89498
:10018000DEBF0FBECDBF8091DD0387FD04C080912F
:10019000DD0385FF33C08FEF8093470280934802D1
:1001A00082E889838DE78A8310E07E010894E11C50
:1001B000F11CC7010E94E014833019F01F5F143155
:1001C000C1F780E060E00E94441081E060E00E949E
:1001D000441080E062E00E94441081E062E00E94EE
:1001E000441060960FB6F894DEBF0FBECDBFCF911E
:1001F000DF911F910F91FF90EF9008958091DD03A3
:1002000084FDC9CF8091DD0384FDC5CF8091DD03DE
:1002100086FD59C08091DD0380FF15C090913601A5
:10022000913009F4DCC080913701813009F4E0C0DD
:10023000992309F056C080913701882309F051C0F5
:1002400081E0809347028091DD0382FD31C080917F
:10025000DD0381FF05C080914702813009F444C06D
:100260008091DD0383FFBDCF80913601813009F499
:100270009CC080913701813009F0B3CF8091470253
:10028000882309F0AECF81E061E00E94441085E54B
:1002900093E09093D8038093D7038091910390E0EB
:1002A0009093DC048093DB0482E08093470299CF33
:1002B00080913601813009F490C0809137018130FE
:1002C00009F08FCFE1CF81E080934702809348020D
:1002D00080E060E00E94441081E060E00E944410F1
:1002E00080CF10924702AFCF8091D5039091D60373
:1002F000892B09F4B5CF8091D5039091D603892B32
:1003000009F4AECF10E020E030E001E01FC08A33F6
:1003100008F043C0803308F073C0803261F08091F0
:100320003901813041F410923901109238018093E3
:100330003601109247021F5F212F30E08091D503D4
:100340009091D6032817390708F08ACFE091DE0391
:10035000F091DF03E20FF31F8081843409F455C06C
:100360008534A8F28634E1F0863468F08E3479F072
:100370008335A9F600933801809139018130D9F68F
:1003800010923901D8CF80913901813049F08091A4
:1003900038018F5F80933801CECF813408F4BFCF0E
:1003A000608187E30E947200C6CF80914702882354
:1003B00009F05FCF61E00E94441080E191E09093EA
:1003C000D8038093D7038AE090E09093DC04809375
:1003D000DB0482E08093470204CF80E0EBCF1092F1
:1003E000360180E060E00E9444109091360120CFF9
:1003F0001092370160E00E9444109091360118CFAE
:10040000608180E30E94720096CF80913901813033
:1004100039F280913801833011F400933901109240
:10042000380189CF1F93CF93DF93809148028F3F8C
:1004300041F080914702813081F0DF91CF911F918F
:1004400008950E942A15892BC1F382E064E00E947E
:100450004410DF91CF911F9108950E942A15EC015D
:10046000009759F30E946F11182F82E064E00E94F8
:100470004410A5E5B3E0E0E0F1E088E001900D92E2
:100480008150E1F7112309F44CC04C2FCE01EC014F
:1004900098E020E2A92FB0E0AB5ABC4FE881E2958A
:1004A000EF70F0E0E55EFE4F80818C939F5FA92F97
:1004B000B0E0AB5ABC4FE991F0E0EF70F070E55E50
:1004C000FE4F80818C939F5FE92FF0E0EB5AFC4F49
:1004D00020839F5FBE01641B6117E0F2812F880FAC
:1004E000810F895FC82FD0E08F5FA82FB0E0982FD1
:1004F0009F5FE92FF0E0CB5ADC4F8DE08883AB5A49
:10050000BC4F8AE08C93EB5AFC4F1082909391037E
:1005100081E08093370110924702DF91CF911F91C4
:100520000895C7E0D0E0A8E0B0E099E0E9E0F0E0AD
:10053000E2CF8DE391E00E943115109247028FEFD8
:10054000809348021092490210924A02109236019A
:10055000109237011092910308952A98962F9F7157
:10056000982B9EBD0DB407FEFDCF1EBC0DB407FE3B
:10057000FDCF67FD03C08EB52A9A08951EBC0DB449
:1005800007FEFDCF8EB52A9A08952A986F71682BC1
:100590006EBD0DB407FEFDCF4EBD0DB407FEFDCF01
:1005A0002A9A08959C01FB012A988AE38EBD0DB416
:1005B00007FEFDCF2115310559F01EBC0DB407FE15
:1005C000FDCF8EB580832150304011F03196F5CFAC
:1005D0002A9A08959C01FB012A988AE78EBD0DB4E2
:1005E00007FEFDCF2115310549F080818EBD0DB488
:1005F00007FEFDCF319621503040B9F72A9A089571
:100600001F93CF93DF93182FC82FD0E0C076D07000
:100610008091D40390E0C817D907B9F080EA6FE160
:1006200043E00E94C502D595C795D595C795D59548
:10063000C795D595C795D595C79580E86FE14C2F9F
:100640000E94C50210761093D403DF91CF911F91C1
:1006500008951F93182F0E94000380E0612F0E94CD
:10066000AD021F9108950F931F93182F062F0E941C
:10067000000380E4612F402F0E94C5021F910F915B
:100680000895CF92DF92EF92FF920F931F938C0108
:100690006C010894C11CD11C84EEF80160810E9499
:1006A000330376010894E11CF11C85EEF8016181A9
:1006B0000E94330387010F5F1F4F82EEF6016181B5
:1006C0000E94330383EEF70161810E94330380EEC1
:1006D000F80161810E94330381EE0F5F1F4FF80123
:1006E00061810E9433031F910F91FF90EF90DF9083
:1006F000CF9008950F931F93682F84ED0E943303CA
:1007000082ED61E00E9433038AEE0E94290380FD9E
:10071000FBCF82ED60E00E94330388ED0E94290345
:10072000082F10E089ED0E942903282F30E0202BAC
:10073000312BC9011F910F9108950F931F93982F8B
:10074000162F072F84ED692F0E94330386ED612F4A
:100750000E94330387ED602F0E9433038AEE0E94CC
:10076000290380FDFBCF1F910F910895229A2A9AA9
:100770002D9A259A2498239A249A8CB580618CBD51
:100780008DB581608DBD8CB580648CBD8FEF60E0D0
:100790004FEF0E94C50280E29EE40197F1F71092AC
:1007A000D3031092D20388E060E00E94330389E013
:1007B00060E00E9433038CE060E00E9433038DE030
:1007C00060E00E9433038AE06FEF0E9433038BE006
:1007D00069E10E94330384E060E00E94330385E016
:1007E0006AE10E94330380EC6DE00E94330381ECE8
:1007F00060E00E94330380E862EC42E30E94C5029D
:1008000086EC62E10E94330387EC6CE00E943303C4
:1008100084EC62E10E9433038AEC6CE20E943303B1
:100820008BEC61E00E94330384EE60E00E943303AE
:1008300085EE6DE40E94330382EE66E50E94330389
:1008400083EE61E30E94330380EE60E30E94330392
:1008500081EE61E30E94330388EC6AE00E94330377
:1008600088E361E80E94330380E160E071E00E9468
:100870009D038FE10E94000380E86BE140EC0E9441
:10088000C50280E86FE144E00E94C50284E162E4B1
:1008900077E00E949D03089508950F931F93CF93CF
:1008A000DF938C01EB0101C000008DE10E94290360
:1008B00082FDFACF80E86FE140E80E94C50280EA3D
:1008C0006FE140E80E94C50282E060E00E943303CD
:1008D00083E06AE10E94330386E06C2F0E943303B9
:1008E0009E012050364E87E0632F0E9433038AE733
:1008F00060E040E00E94C502CE01B8010E94EA0219
:1009000080E86FE148E00E94C50201C000008CE170
:100910000E94290383FFFACFDF91CF911F910F919E
:1009200008950895CF92DF92EF92FF920F931F9355
:10093000CF93DF938C017B01EA01690180E86FE1CD
:1009400040E80E94C50280EA6FE140E80E94C502CB
:1009500082E060E00E94330383E06AE10E94330397
:10096000CE01800F682F86E00E943303980120504B
:10097000364E2C0F3D1F87E0632F0E9433038AE71A
:1009800060E040E00E94C502C801B7010E94EA028F
:100990002097A9F480E86FE148E00E94C50201C0F9
:1009A00000008CE10E94290383FFFACFDF91CF91F1
:1009B0001F910F91FF90EF90DF90CF900895CE019F
:1009C000B6010E94EA02E6CFCF93DF938CE10E944A
:1009D000290386FD06C0C0E0D0E0CE01DF91CF91B3
:1009E000089580E06091D2030E9433036091D303A5
:1009F00081E00E9433038AE360E00E94AD028093AD
:100A0000D2031092D3038AE360E00E94AD02382F34
:100A100020E08091D2039091D303822B932B90936B
:100A2000D3038093D2038AE360E00E94AD02C82F13
:100A3000D0E08AE360E00E94AD02382F20E0C22BB4
:100A4000D32B8AE360E00E94AD028AE360E00E945B
:100A5000AD02CE01DF91CF9108959C01CB01B90188
:100A60000E94D20208958CE06091D2030E94330369
:100A70006091D3038DE00E94330380E86EE140E48F
:100A80000E94C502089508950895FC01DA012181AC
:100A900030E0908180E0282B392B3093090420939B
:100AA0000A04328120E0838190E0822B932B909383
:100AB0000B0480930C0411962C91119730E09C91BB
:100AC00080E0282B392B30930D0420930E041296CE
:100AD0003C91129720E013968C9190E0822B932BFF
:100AE00090930F0480931004FB01218130E09081EA
:100AF00080E0282B392B3093FF03209300043281B0
:100B000020E0838190E0822B932B909301048093CB
:100B1000020410920404109203041092060410922E
:100B2000050410920804109207041092FB0381E060
:100B30008093980308959C0180910304909104048C
:100B40008217930791F08091050490910604821713
:100B50009307B9F0809107049091080482179307D6
:100B6000A1F083E080939803089580E0E0E0F0E056
:100B700080939803EE0FFF1FED5FFB4F11821082F1
:100B8000089581E0E1E0F0E0F3CF82E0E2E0F0E020
:100B9000EFCF9C018091030490910404892B81F094
:100BA0008091050490910604892BB1F0809107048F
:100BB00090910804892BA1F083E080939803089515
:100BC00080E0E0E0F0E080939803EE0FFF1FED5F20
:100BD000FB4F31832083089581E0E1E0F0E0F3CF23
:100BE00082E0E2E0F0E0EFCF282F892F922F0895E6
:100BF000BC018091E0039091E10308960E94CF0B25
:100C0000E091E003F091E1038091D9038087809126
:100C1000DA0381878091DB0382878091DC038387FD
:100C20000895EF92FF920F931F93CF93DF93C0919C
:100C3000E003D091E10327E434E03093DF03209315
:100C4000DE03823009F4ADC0890108521040809162
:100C50001F04853459F01092D6031092D503DF910A
:100C6000CF911F910F91FF90EF9008954091210433
:100C70008091D5039091D603242F30E0892F9927B6
:100C80002817390769F02091D5033091D603942FA6
:100C900080E03070822B932B9093D6038093D50302
:100CA00080912204282F30E08091D5039091D603C3
:100CB00090702817390759F08091D5039091D60389
:100CC0008070822B932B9093D6038093D5038091D1
:100CD000250490E08F739070892B09F0BCCF809130
:100CE0002604882309F0B7CF20912F0430913004D7
:100CF0008091090490910A042817390709F0ABCFB5
:100D0000209131043091320480910B0490910C04B5
:100D10002817390709F09FCF0E94650C8F5F9F4FFE
:100D200009F099CF80912804863009F4E8C1813018
:100D300009F091CF80913304883009F08CCF109264
:100D400033048091350490913604EFEF873F9E077E
:100D500008F481C20996909336048093350420915B
:100D60002F043091300480912B0490912C04F801D1
:100D7000918B808B35872487209131043091320408
:100D800030939B0320939A0380912D0490912E041D
:100D9000938B828B3787268782E064E00E94441021
:100DA0005ECF809197038F5F80939703882379F4B8
:100DB000809196038F5F80939603882341F48091FE
:100DC00095038F5F80939503882309F470C0109278
:100DD000D6031092D503298D273009F460C0253041
:100DE00009F45DC0222309F436CF88899989892BBB
:100DF00009F463C08A8D81508A8F8F5F09F02BCFF1
:100E00003B8D353009F40AC1822F8150823008F4BD
:100E100002C1353008F4EAC080E38A8F3F5F3B8F20
:100E2000822F90E08F7090708430910509F4EDC0AE
:100E3000853091050CF0E3C08130910509F4F8C0CC
:100E4000039709F008CF1092D6031092D5031092A1
:100E5000DC041092DB0484E08093DD030E94B50083
:100E60008091D7039091D8039093DF038093DE03A2
:100E70008091DB049091DC04892B09F4EEC0888911
:100E80009989009709F4E9C088969093D6038093D6
:100E9000D5030FE114E088E1809340043AC08A8DC5
:100EA0008F5F8A8F883709F0D6CE198ED4CE809185
:100EB00094038F5F809394038ACF2F70233009F0BF
:100EC000CACE1092D6031092D5031092DC04109271
:100ED000DB0488E08093DD030E94B5008091DB0491
:100EE0009091DC04892B09F4B6CE8091DD0385FF57
:100EF000C4C01092DC041092DB04198E84E180934C
:100F0000400488E290E09093D6038093D5030FE1EC
:100F100014E080E5F80180A38885F801848F898535
:100F2000858F8A85868F8B85878F8C85808F8D8531
:100F3000818F8E85828F8F85838F86E081878C81DC
:100F40009D81958B848B8E819F81978B868B8091E1
:100F5000090490910A049587848780910B049091ED
:100F60000C049787868788819981918B808B8A81F1
:100F70009B81938B828B898D84FF33C013A212A235
:100F80008091D5039091D603F80192838091D50387
:100F90009091D603838315A214A20E946C0C8095B5
:100FA0009095F80195A384A385E480931F04118292
:100FB000178216828FEF808780919203909193031E
:100FC0000196909393038093920394838583138671
:100FD00012860E94650C80959095F8019387828710
:100FE0003ECEF80112A280E183A3CACF83E090E055
:100FF000032E02C0880F991F0A94E2F70ECF8630A5
:10100000910519F0089709F026CE0FE114E081E16F
:10101000F80181A376CF333009F0FBCE198E80E83A
:101020008093DD030E94B50084E18093400469CF82
:101030000FE114E082E1F80181A382E080A784E05F
:1010400081A712A682E983A78CE290E09093D60351
:101050008093D50380E680A35FCF8091DD0381FF7D
:10106000FACD88E290E09093D6038093D5030FE108
:1010700014E080E1809340044CCF8091DD0384FF35
:101080000FC01092DC041092DB0481E090E0998B99
:10109000888B84E0898F1B8E81E18093400431CF5F
:1010A0008091DB049091DC04892BD9F08091DD03E1
:1010B00080FF1BC0198A188A2A893B898091DB042A
:1010C0009091DC042817390720F43093DC04209336
:1010D000DB048091DB049091DC04998B888B1B8E60
:1010E000BFCE198A188A1B8EBBCE88899989009732
:1010F00019F39093DC048093DB041B8EB1CE0E9425
:101100006C0C8F5F9F4F09F0A6CD32EEE32E33E0DB
:10111000F32EE701898D882351F020913504309119
:1011200036048C819D812817390709F49AC06D9681
:1011300023E0CF3FD20770F380914004482F50E066
:10114000CA018F739070029709F461C042FD83CD8C
:1011500084E1F80181A388E290E09093D603809324
:10116000D50380E580A390913A0480913E04838F5B
:10117000978F4091390480913D04828F468F309142
:10118000380480913C04818F358F2091370420935F
:10119000980380913B04808F248F9F5F978F9923C2
:1011A00061F4842F8F5F868F882339F4832F8F5FBC
:1011B000858F882311F42F5F248F20913304309181
:1011C00034048091350490913604F801958B848B1A
:1011D000378B268B20912F043091300480912B0483
:1011E00090912C04918B808B35872487209131043A
:1011F0003091320430939B0320939A0380912D0405
:1012000090912E04938B828B37872687B9CE2091BD
:1012100035043091360430939B0320939A038091D8
:101220000304909104048217930709F466C0809127
:101230000504909106048217930709F45EC080911B
:101240000704909108048217930709F456C083E0BD
:10125000809398037BCF089690933604809335044F
:101260007ECD20913304309134048E819F812817E4
:10127000390709F05CCF20912B0430912C04888130
:1012800099812817390709F052CF20912D04309108
:101290002E048A819B812817390709F048CFD09303
:1012A000E103C093E0031092DD0380914004482FD6
:1012B00082FDD1C180913F0482958F70880F880F85
:1012C000809398032091D5033091D6032451304068
:1012D000281B31093093D6032093D5038091D50381
:1012E0009091D603892B31F1909137048885981716
:1012F00091F080E1F80181A304CE109298038091CF
:10130000FB03882309F442C1873009F43CC181E022
:1013100080939803A0CC909138048985981749F759
:10132000909139048A85981721F790913A048B851A
:101330009817F9F644FF06C0688979896115710527
:1013400009F090C1898D482F50E0CA018F709070CC
:101350008530910509F4F3C0863091050CF0DAC0B0
:101360008330910509F44CC08430910534F5019720
:1013700009F071CC8091DD0380FF6DCC83E0898F13
:1013800080E48093DD03198A188A8091D5039091B7
:10139000D603892B59F08091DD0382608093DD03B1
:1013A0008091D5039091D6030E94F8051092DC0439
:1013B0001092DB040E94B50098CD8091D5039091E6
:1013C000D603892B31F08091D5039091D6030E94EA
:1013D000F8058091400480FF94C08091DD0380FF78
:1013E0008DC087E0898F1A8E198A188A81E090E073
:1013F0000E94F80580E18093DD030E94B50079CF5B
:101400008091400480FF24C088899989892B09F044
:1014100022CC8091D5039091D60301960E94F805C5
:1014200080E18093DD038091D5039091D603892BD1
:1014300029F08091DD0382608093DD030E94B50076
:1014400081E090E0998B888B88E0898F1B8EDFCDBF
:1014500085FF1CC09091450480E02091460430E057
:10146000282B392B8091DE039091DF03820F931F8D
:101470009093DF038093DE038091D5039091D60390
:10148000821B930B9093D6038093D5038091D50351
:101490009091D603892B69F044FD0BC08091DD0348
:1014A00082608093DD038091D5039091D6030E94E2
:1014B000F8059091410480E020914204820F911D33
:1014C00090939B0380939A032C893D8928173907B1
:1014D00010F0892B21F430939B0320939A03809181
:1014E0009A0390919B039B8B8A8B8091DD0390E004
:1014F00083709070892B09F4AECB58CF86E0898F2A
:1015000075CF8091DD0380FF2AC085E0898F198A1D
:10151000188AA1CB8730910509F4EBCE873091056D
:1015200034F1089709F097CB8091DD0380FF93CBCE
:10153000198E80E18093DD030E94B5008CCB8091F1
:10154000D5039091D603892B31F08091D5039091EA
:10155000D6030E94F8058091400480FD10C0809160
:10156000D5039091D603892B09F0C3CE74CB80911B
:10157000DD0380FF70CB87E0898F1A8E6CCB87E00C
:10158000898F1A8E33CF81E080939803F092E10324
:10159000E092E00383E08093FC038093FA031092CF
:1015A000F80384E08093F9031092FD033093E7037E
:1015B0002093E60380913304909134049093E903DF
:1015C0008093E80380912B0490912C049093E30383
:1015D0008093E20380912D0490912E049093E50373
:1015E0008093E40381E08093FB03809194038093D4
:1015F000EE03809195038093EF038091960380938F
:10160000F003809197038093F10381E090E0909341
:10161000F3038093F20380913A048093ED03809169
:1016200039048093EC03809138048093EB0380911C
:1016300037048093EA0381E090E00E94F80520914E
:101640003F04822F90E0807F9070813591050CF0EF
:1016500058C0E701EFCC198E80E28093DD030E9431
:10166000B500F9CACE010C960E94CF0B9091D90318
:1016700080913B04891708F465CE9091DA0380913C
:101680003C04891708F45ECE9091DB0380913D0401
:10169000891708F457CE9091DC0380913E04891796
:1016A00008F450CE8091D9038C878091DA038D871E
:1016B0008091DB038E878091DC038F878B8D88235D
:1016C000D1F42E89988D8A8D981B822F86958695C8
:1016D0008695981B392F320F3E8B8F89282F2695A0
:1016E0002695821B97FD9195890F8F8B36953695A0
:1016F0003695830F888F81E08093DD03888D8A8FF4
:1017000021CE1092980322952F70422F50E0455021
:101710005040440F551F440F551F90919803292F97
:1017200030E024173507BCF4F901EF5EFB4F86A9C2
:1017300080939903882379F0813069F1823071F0C8
:10174000E92FF0E0EF5EFB4F87A9882321F0890F96
:1017500080939803E2CFC2EED3E06CCC87A98430AB
:1017600079F730AD20E081AD90E0822B932B909300
:101770009B0380939A038339910510F082E990E0EE
:101780009093F5038093F4039093F7038093F6030B
:10179000C2EED3E04FCC9F5F90939803BECFFC0185
:1017A0008381860F8093DC03272F33278281820F6A
:1017B0008093DB0381818093DA0380818093D90356
:1017C0008091DB0390E08217930748F48091DA035D
:1017D0008F5F8093DA038091DA038823F9F0809198
:1017E000DC0390E0707086179707B8F48091DB03F4
:1017F0008F5F8093DB038091DB03882371F48091FA
:10180000DA038F5F8093DA038091DA03882329F467
:101810008091D9038F5F8093D90308958091D90374
:101820008F5F8093D903DBCFEF92FF920F931F93CB
:10183000CF93DF937C016230710508F441C0FC0155
:101840009B01C0E0D0E080819181C80FD91FC817EB
:10185000D90708F4219632962250304022303105C3
:1018600090F7CB010297BC01617070708E7F029679
:10187000E80EF91E8E016130710541F0C801DF915B
:10188000CF911F910F91FF90EF90089580E0F701A5
:1018900090810E94F4058C010C0F1D1F80E0F70160
:1018A00090810E94F4050817190740F70F5F1F4F3A
:1018B000C801DF91CF911F910F91FF90EF90089594
:1018C000C0E0D0E000E010E0D6CF8FE194E064E12A
:1018D00070E00E94140C08950F931F93CF93DF9331
:1018E00083E394E064E170E00E94140C8C01609149
:1018F000220470E0685270409091210480E0680FEB
:10190000791F8091DE039091DF030E94140C9C01EB
:10191000200F311F2017310710F42F5F3F4F8091A8
:101920002B0490912C04280F391F2817390710F425
:101930002F5F3F4F80912D0490912E04280F391F67
:101940002817390710F42F5F3F4F80912F04909193
:101950003004280F391F2817390710F42F5F3F4F25
:101960008091310490913204E901C80FD91FC81742
:10197000D90708F4219686E090E00E94F405C80F8C
:10198000D91F86E090E00E94F405C817D90708F433
:1019900021968091220490E044973091210420E028
:1019A000820F931F0E94F4059C012C0F3D1F2817E6
:1019B000390710F42F5F3F4FC901DF91CF911F917D
:1019C0000F9108958091CE038F5F8093CE03109284
:1019D000CC0320E040E05BE0682F70E006C04F5F82
:1019E000242F4093CC034430F0F4259FF0011124C0
:1019F000E456FC4F8281938120813181822B932B8D
:101A0000892B69F382859B01281B31092837310511
:101A100034F310821182128213824F5F242F40937D
:101A2000CC03443010F3089580E090E02BE0829FD7
:101A3000F0011124E456FC4F1082118212821382AD
:101A4000892F8F5F982F8093CC03843080F3089583
:101A500040912F04509130048091090490910A0420
:101A6000842795272091FF0330910004822393233C
:101A7000892B99F4609131047091320480910B04A8
:101A800090910C048627972720910104309102043D
:101A900082239323892B09F4C2C080910D04909175
:101AA0000E049093C9038093C80380910F04909112
:101AB00010049093CB038093CA031092CC036091DF
:101AC000C8037091C903A091CA03B091CB03ECE99C
:101AD000F3E030E021E007C0822F8F5F3B96853036
:101AE00089F1322F282FAF01808191816817790702
:101AF00099F782819381A817B90771F73093CC03C6
:101B0000A1E1B4E0FA01349686E001900D92815093
:101B1000E1F7A7E1B4E0EAE0F1E086E001900D92A0
:101B20008150E1F788E090E090931E0480931D04BB
:101B30008091D5039091D6030E969093D60380930F
:101B4000D50308952093CC032430D1F681E194E0AD
:101B50006FEF70E046E050E00E941516E1E3F4E01C
:101B600086E0DF011D928A95E9F77A97AAE0B1E055
:101B700086E00D9001928150E1F7A7E2B4E0EAE03F
:101B8000F1E086E001900D928150E1F78091C80369
:101B90009091C90390933804809337048091CA03CD
:101BA0009091CB0390933A04809339048091090477
:101BB00090910A0490932E0480932D0480910B043D
:101BC00090910C049093300480932F0480E091E076
:101BD00090932604809325049093200480931F04FF
:101BE00088E090E0909322048093210486E0809323
:101BF000230484E08093240488E096E090931E04FC
:101C000080931D0487E494E09093DF038093DE03C8
:101C10008AE290E09093D6038093D5030895509381
:101C2000C9034093C8037093CB036093CA0345CFA5
:101C3000FF920F931F93CF93DF93EC01062FF72EA4
:101C40001092CC03ACE9B3E0FD0140E050E005C0E8
:101C50004F5F3B96443031F1542F20813181211563
:101C60003105B1F3628173816115710589F3888152
:101C700099812817390761F78A819B81681779074D
:101C800039F75093CC03EF012496802F9F2D9C01B0
:101C9000D90186E00D9009928150E1F78091CE0341
:101CA00082874FC01092CC0320E030E001C0322F79
:101CB000FD018D919C911197892B39F412968D918C
:101CC0009C911397892B09F442C02F5F1B962430F7
:101CD00071F71092CF031092CD031091CE03A12F74
:101CE000B0E0E6EAF3E070E060E040E050819D01A2
:101CF000251B3109862F90E0821793071CF4612F72
:101D0000651B742F4F5F3B96443081F77093CD0372
:101D10006093CF037093CC03EDEBF3E0888199815E
:101D2000AA81BB81EF0189939993A993B993202F3D
:101D30003F2DC901DC0186E00D9009928150E1F749
:101D40001287DF91CF911F910F91FF9008953093EB
:101D5000CC031091CE03E2CF8091D5039091D603AE
:101D60000E979093D6038093D503809109049091A8
:101D70000A0420912B0430912C0482279327209170
:101D8000FF033091000482239323892B91F48091E7
:101D90000B0490910C0420912D0430912E04822785
:101DA0009327209101043091020482239323892BED
:101DB00009F008958BE294E067E174E00E94180E48
:101DC00008958091D5039091D6038A9798F0109248
:101DD000D6031092D50361E174E0809125049091BF
:101DE000260421E08030920751F08050924009F49F
:101DF00073C008951092D6031092D50308952091D0
:101E00003704309138048091090490910A0428170E
:101E1000390779F72091390430913A0480910B0405
:101E200090910C042817390721F780E092E09093F5
:101E3000260480932504DB019096FB01769686E0CC
:101E400001900D928150E1F7A7E2B4E0EAE0F1E001
:101E500086E001900D928150E1F7A7E1B4E0EAE05D
:101E6000F1E086E001900D928150E1F7E1E1F4E0CC
:101E7000DF01909686E00D9001928150E1F780910C
:101E80002D0490912E049093380480933704809110
:101E90002F049091300490933A04809339048091F8
:101EA000090490910A0490932E0480932D0480914C
:101EB0000B0490910C049093300480932F0488E0DD
:101EC00096E090931E0480931D048AE290E0909324
:101ED000D6038093D50308952091370430913804B8
:101EE0008091090490910A042817390709F081CFDD
:101EF0002091390430913A0480910B0490910C04A4
:101F00002817390709F075CFCB014C966A5E7F4FD1
:101F10000E94180E089520ED37E0E22FF32F31973D
:101F2000F1F78A95D1F70895CF93DF930E94E404E7
:101F3000EC01009781F0893C910558F481E194E02F
:101F4000BE010E942D050E9433058C2FDF91CF9199
:101F500008950E94330580E0DF91CF91089580912C
:101F6000D5039091D603C79788F04091D50350913F
:101F7000D603465350402091DE033091DF0386E3C1
:101F800090E061E174E00E94920408956091D503AD
:101F90007091D60381E194E00E944D0408950E945F
:101FA000B6030895219A299A87B1886387B988B1C1
:101FB0008F6388B91092DE041092E0041092E2045C
:101FC000E1EBF0E08081856080830895813051F0FD
:101FD000813020F0823059F080E0089586B18095FC
:101FE0008170089586B1869580958170089586B137
:101FF00086958695809581700895B89B15C0B89A8E
:1020000021E030E148E0922F9150E92FF0E0EE0F0F
:10201000FF1FE352FB4F8181823039F08430A1F001
:10202000233010F42F5FEFCF089580818F5F80837E
:102030008B3FB0F310829130A1F09130B8F488B1A9
:10204000842788B92F5FDFCF80818F5F80838D30B9
:1020500038F310829130A9F0913078F4439A2F5FD1
:10206000D2CF88B1832788B92F5FCDCF9230C1F608
:1020700088B190E2892788B90895923089F6459A07
:102080000895449A2F5FBFCFE82F8130A9F08130A7
:1020900048F08230D9F0F0E0EE0FFF1FE352FB4F23
:1020A00061830895623089F1633050F5662391F1C0
:1020B000613089F74398EFCF6230F9F06330C0F4B4
:1020C000662351F1613039F74498E5CF623069F009
:1020D000633030F46623E1F06130E9F64598DBCFF8
:1020E000633009F16430B9F645981092E104D3CF1A
:1020F0006330A1F0643079F644981092DF04CBCFBE
:102100006330B1F0643039F643981092DD04C3CFE8
:10211000459AC1CF439ABFCF449ABDCF88B190E1D1
:10212000892788B9B8CF88B190E2892788B9B3CF19
:1021300088B198E0892788B9AECFAF92BF92CF928D
:10214000DF92EF92FF920F931F93DF93CF93CDB760
:10215000DEB7A4970FB6F894DEBF0FBECDBF7C01EB
:102160006B015A0130EC398398EA9A831B8288EC20
:102170008C833D839E8321E02F83888739879A87CC
:1021800044E64B8788E58C878FEF8D878E878F8716
:10219000188A898B8A8B8B8B1C8A8D8B8E8B8F8B6D
:1021A000188E398F9A8F1B8E2C8F3D8F9E8F2F8F7D
:1021B00028A339A39AA34BA32CA386B1877085309B
:1021C00009F452C0863078F1863009F469C08981FB
:1021D0009A81AB81BC81F70180839183A283B38311
:1021E0008D859E85AF85B889F60180839183A28312
:1021F000B383898D9A8DAB8DBC8DF50180839183DE
:10220000A283B383A4960FB6F894DEBF0FBECDBFF2
:10221000CF91DF911F910F91FF90EF90DF90CF90C2
:10222000BF90AF900895882391F600E010E0C801B8
:102230000E941C16F701E00FF11F8083C80104966D
:102240000E941C16F601E00FF11F8083C80108965A
:102250000E941C16F501E00FF11F80830F5F1F4FD6
:102260000430110521F7CECF89859A85AB85BC85D1
:10227000F70180839183A283B3838D899E89AF897F
:10228000B88DFB0180839183A283B38389A19AA136
:10229000ABA1BCA1F50180839183A283B383B2CFAC
:1022A0008D819E81AF81B885F70180839183A28360
:1022B000B38389899A89AB89BC89FB018083918327
:1022C000A283B3838D8D9E8DAF8DB8A1F5018083E0
:1022D0009183A283B38396CF80E090E00895FC01C0
:1022E00080818076803671F0808190E08076907079
:1022F00095958795959587959595879595958795C6
:102300008E5F0895818108952F923F924F925F9240
:102310006F927F928F929F92AF92BF92CF92DF92F5
:10232000EF92FF920F931F93DF93CF9300D000D0D3
:102330000F92CDB7DEB75C019C0121503F4F3D832A
:102340002C83F9019081EEEF4E2E512C4A0C5B1C30
:10235000F2018081981709F400C1EA2CB982C12CDE
:1023600071E0D72ECA0CDB1C61E0862E962E8A0CFB
:102370009B1C52E0652E51E0752E6A0C7B1C45E0DB
:10238000242E41E0342E2A0C3B1C95012D5F3E4F3C
:102390003B832A830CC0F4018081F826F082EC8113
:1023A000FD819081F2018081981709F4D6C0F50172
:1023B000E90FF11DF080F7FC69C0F30180818823EB
:1023C00009F043C0F082F6013081F3012081832FB0
:1023D00090E0820F911D8F3F9105BCF10EEF031B22
:1023E000F894F2014081EC81FD818081841708F02E
:1023F0007EC0842F831BF20180837894EC81FD8161
:102400008081481708F066C010E09501200F311F49
:10241000C9016E2D798150E00E940C16F601808171
:102420009501280F311D8E2D9981B901402F50E063
:102430000E940C16EC81FD818081F6019081891B40
:10244000EC81FD818083F6011082EC81FD81908119
:102450009F5F9083F60180819E3F18F0EC81FD81A3
:102460001082981BF3018081891709F094CFF40141
:1024700080818F1509F440C0F10180818F5F8083D6
:10248000EC81FD818081F601808385CFF60180811A
:10249000981721F0F10180818F5F8083EC81FD81AD
:1024A0008081F60180832FEFF40120838F2D90E04F
:1024B000807690708036910509F44CC0959587958B
:1024C0009595879595958795959587958E5FF30159
:1024D000808379CFF6018081481B9501280F311D3B
:1024E0008E2D9981B90150E00E940C16A3CF802F48
:1024F000840FF201808381CFF60180819501280F3E
:10250000311DEA81FB8180819181019691838083D5
:10251000EC81FD818081F60180832115310509F46C
:102520003ACFC9010F900F900F900F900F90CF915D
:10253000DF911F910F91FF90EF90DF90CF90BF90B0
:10254000AF909F908F907F906F905F904F903F9053
:102550002F900895F301108278CF20E030E0E1CF92
:10256000FC018AE091E0DF019C011D922150304086
:10257000E1F708951F920F920FB60F9211248F93D7
:102580009F93EF93FF93EFE6F0E080818F7D808350
:10259000809186009091870080539D4F9093E8042E
:1025A0008093E7048091E7049091E8049093890078
:1025B00080938800B19A80818260808384E08093D8
:1025C000EB041092EC04FF91EF919F918F910F908B
:1025D0000FBE0F901F9018951F920F920FB60F927B
:1025E00011242F933F938F939F93AF93BF93EF93B8
:1025F000FF938091E7049091E80480529E4F90935E
:10260000E8048093E7048091E7049091E8049093B4
:102610008900809388008091EC048F5F8093EC04A4
:102620008091EB048430D9F08091EB048330B1F1D8
:102630008091EB04823009F45BC08091EB0481301F
:1026400009F445C0FF91EF91BF91AF919F918F9198
:102650003F912F910F900FBE0F901F901895809172
:10266000EC04893008F45DC0B59A80916F008062F7
:1026700080936F00189971C0E091E904F091EA0429
:10268000EB5FFE4F80818F5F80831092EC0481E0CE
:102690008093EB048091EB04833051F685B123B134
:1026A000869590E030E08227932780FF4EC080918E
:1026B000EC04893008F065C08091E60480FD91C08B
:1026C000299A8091E60486958093E604B1CF8091A3
:1026D000EC04882399F18091EC04883308F4B2CF9C
:1026E0001092EB0480916F008D7F80936F00AACFD2
:1026F0008091EC04882379F18091EC048F3008F408
:102700009CCF29981092EC0481E08093EB04E09137
:10271000E904F091EA04E75FFE4F80818F5F8083D8
:102720008CCF8091E60486958093E604189B8ACF2F
:102730008091E60480688093E60484CFB59A809106
:102740006F00806280936F007DCF1092EC0482E076
:102750008093EB046DCF299A70CFE091E904F0915A
:10276000EA049091E604DF01A250BF4F8C91E80F7C
:10277000F11D90838F5F8C938E3F08F486CF1C925F
:1027800084CF8091EC04893071F18091E4048F5FF3
:102790008093E4049091E4048091E504981728F56F
:1027A0001092EC04E091ED04F091EE048091E404C9
:1027B000E80FF11D80818093E604299A80918400BE
:1027C0009091850084539E4F9093E8048093E70492
:1027D0008091E7049091E8049093890080938800A9
:1027E00027CF29986ECF299823CF81E08093E304E7
:1027F0001092EC048093EB041BCF9093EA04809337
:10280000E9042998219A80E880BF1092EB04B59AD8
:10281000EFE6F0E0808180628083E1E8F0E0808193
:10282000887F8160808308951F93CF93DF93EC01AD
:10283000162F0E946F118093E5042091E50421502A
:102840001092E4048091E404821708F094C09FEF92
:102850008091E404FE01E80FF11D808198278091AA
:10286000E4048F5F8093E4048091E404821780F392
:10287000FE01E20FF11D9083F8948091EB0481300A
:10288000E9F078948091EB04813059F18091EB0468
:10289000882371F4F89480916F008F7D80936F008E
:1028A000B59B2AC080916F00806280936F007894FE
:1028B00092E0892FDF91CF911F9108958091EC04D0
:1028C000612F1933A8F48617E0F21092EB0480917F
:1028D0006F008D7F80936F0078948091EB0481303E
:1028E000A9F68091EC0490E0843118F391E0E1CFF7
:1028F00068E3861730F2E9CF299A8091840090919D
:10290000850084539E4F9093E8048093E704809160
:10291000E7049091E804909389008093880078946C
:10292000D093EE04C093ED041092E4041092E304FB
:1029300088818093E60483E08093EB041092EC049A
:10294000B19A80916F00826080936F008091EB0458
:102950008330E1F38091E304882379F0E091E90486
:10296000F091EA04EA5FFE4F8081918101969183A4
:10297000808393E09ECF9FEF7BCF8091EB048230EA
:1029800011F095E096CF94E094CFDF93CF93CDB73D
:10299000DEB760970FB6F894DEBF0FBECDBF898358
:1029A0006A834B83CE010196622F0E9414146096B5
:1029B0000FB6F894DEBF0FBECDBFCF91DF91089563
:1029C000FF920F931F93CF93DF93EC01FF241EE23E
:1029D00001E0CE01612F0E9414148330C9F08130D0
:1029E000E9F08230B0F3823011F4002391F71B310B
:1029F00008F01150F39489E1F81651F7E091D003F3
:102A0000F091D103E85FFE4F80818F5F808386E085
:102A1000DF91CF911F910F91FF90089500E0D9CFE2
:102A2000DF93CF93CDB7DEB760970FB6F894DEBFD4
:102A30000FBECDBF89836A834B83CE0101960E946E
:102A4000E01460960FB6F894DEBF0FBECDBFCF91F5
:102A5000DF9108958091D0039091D1030E94841159
:102A600008959093D1038093D0030E94FD1308959D
:102A70001F920F920FB60F9211248F93789480912A
:102A8000EF048F5F8093EF048F910F900FBE0F9034
:102A90001F9018950F931F930E94940F90E09093AE
:102AA000D6038093D5038091D5039091D603892BCB
:102AB00021F58091EF048730E8F01092EF0482EE68
:102AC00093E09093E1038093E00382E00E9411067B
:102AD0008091D5039091D603892B99F58091F004CC
:102AE0009091F10401969093F1048093F00485563F
:102AF0009140F0F41F910F91089500911D041091E1
:102B00001E0480E098E00E94F40508171907F1F010
:102B100000911D0410911E0486E098E00E94F405C7
:102B20000817190719F11092EF041F910F910895DA
:102B30000E94E20C1092F1041092F0041F910F9188
:102B400008950E94280D0E94AF0FC8CF0E94AC0EBE
:102B500081E00E9411068091D5039091D603892BC4
:102B600011F30E94280D0E94AF0FDDCF0E94E10EED
:102B70008091D5039091D603892BA9F20E94AF0FC3
:102B8000D2CFCF92DF92EF92FF920F931F93DF93FA
:102B9000CF93CDB7DEB72C970FB6F894DEBF0FBE3C
:102BA000CDBF95E0E92EF12CEC0EFD1E89E0C82E7C
:102BB000D12CCC0EDD1E8E010F5F1F4FC801B70157
:102BC000A6010E949D100E94CF0FC801B701A60167
:102BD0000E9445050E94140D84E093ED0E94C905F2
:102BE0001092EF041092F1041092F00483E085BD7E
:102BF000EEE6F0E08081816080832C960FB6F89439
:102C0000DEBF0FBECDBFCF91DF911F910F91FF901F
:102C1000EF90DF90CF900895FB01DC0102C001909E
:102C20000D9241505040D8F70895DC0101C06D93DA
:102C300041505040E0F70895F999FECF92BD81BD13
:0C2C4000F89A992780B50895F894FFCF0A
:102C4C0052454345495645200001004D563130311F
:102C5C0053454E54204F4B200D0A00303132333443
:102C6C0035363738396162636465660052454345D1
:062C7C004956452000004E
:00000001FF
